:020000040800F2
:10000000900E0020AD0100088F0A0008870A000842
:100010008B0A0008F7070008DF1200080000000044
:10002000000000000000000000000000B10D00080A
:10003000FB070008000000001D0B0008C90E0008A7
:10004000C7010008C7010008C7010008C701000870
:10005000C7010008C7010008C7010008C701000860
:10006000C7010008C7010008C7010008C701000850
:10007000C7010008C7010008C7010008C701000840
:10008000C7010008C7010008C7010008C701000830
:10009000C7010008C7010008C7010008C701000820
:1000A000C7010008C7010008C7010008C701000810
:1000B000C7010008350F0008C7010008C701000884
:1000C000C7010008C7010008C7010008C7010008F0
:1000D000C701000891100008C7010008C701000807
:1000E000C7010008C7010008C7010008C7010008D0
:1000F000C7010008C7010008C7010008C7010008C0
:10010000C7010008C7010008550F0008C701000813
:10011000C7010008C7010008C7010008C70100089F
:10012000C7010008C7010008C7010008C70100088F
:10013000C7010008C7010008C7010008C70100087F
:10014000C7010008C7010008C7010008C70100086F
:10015000C7010008C7010008C7010008C70100085F
:10016000C7010008C7010008C7010008C70100084F
:10017000C7010008C7010008C7010008C70100083F
:10018000C7010008C7010008DFF80CD000F068FACA
:1001900000480047DD1F0008900E002030BF72B6F7
:1001A000704762B6704780F30888704706488047FA
:1001B00006480047FEE7FEE7FEE7FEE7FEE7FEE74C
:1001C000FEE7FEE7FEE7FEE7CD0E00088901000826
:1001D00040EA01039B0703D009E008C9121F08C0C9
:1001E000042AFAD203E011F8013B00F8013B521E49
:1001F000F9D27047D2B201E000F8012B491EFBD2C0
:1002000070470022F6E710B513460A460446194621
:10021000FFF7F0FF204610BD421C10F8011B00291B
:10022000FBD1801A704710B5002200E0521C835C9D
:100230008C5CA34201D1002BF8D1D8B2E1B2401AB4
:1002400010BD30B505460020034600E05B1C93421C
:1002500005D2EC5CC85C201A01D1002CF6D130BD6F
:1002600030B50B46014600202022012409E021FA86
:1002700002F59D4205D303FA02F5491B04FA02F583
:100280002844151EA2F10102F1DC30BD2DE9F05F1A
:100290000546002092469B468846064681464024F5
:1002A0001BE0284641464746224600F0FAF95346ED
:1002B0005A46C01A914110D311461846224600F002
:1002C000E1F92D1A67EB01084F4622460120002173
:1002D00000F0D8F917EB00094E41201EA4F10104EB
:1002E000DFDC484631462A464346BDE8F09F2DE90B
:1002F000FE4F804681EA0300C00F0C46009021F0BB
:10030000004123F00045B8EB0200A94105D2404668
:10031000214690461C460B46024623F000401043FF
:1003200047D0270DC7F30A00C3F30A510290401AC1
:10033000019040286BDAC3F3130040F4801B00984F
:10034000924620B10023D2EB030A63EB0B0B01981A
:100350005946C0F14002504600F094F906460D4659
:1003600050465946019A00F0ACF910EB0800614183
:10037000002487EA115284EAE7731A4340D0009AB6
:1003800062B3019A012A4FEA075215DC001B61EBA8
:1003900002014FF0004202EA0752CDE90042001C80
:1003A00041F5801132462B4600F0ACF903B0BDE8B0
:1003B000F08F40462146F9E7001B61EB0201001C6B
:1003C00041F5801300185B412018A2F5001747EB98
:1003D000030140EAD570B6196D4111E06D084FEA8E
:1003E000360645EAC0754FEA0752001B61EB020171
:1003F000001C41F5801149084FEA300000195141B5
:1004000032462B4603B0BDE8F04F00F06CB90098BF
:10041000012240000023D0EB020263EBE07300985E
:1004200021464FEAE074B8EB000061EB0401E9E714
:1004300083F000435BE781F0004158E72DE9FE4F70
:1004400081EA030404F0004421F0004100944FF0DD
:10045000000B23F0004350EA01045ED052EA03048B
:100460005BD0C3F30A54C1F30A552C44A4F2F3340D
:100470000194A0FB0254C1F3130141F48011C3F3B2
:10048000130343F4801301FB024400FB034E840A70
:10049000970A44EA815447EA8357A4FB0768029508
:1004A0008D0A05FB07854FEA932C04FB0C542705A6
:1004B000029D4FEA065847EA1637B5EB08056EEB82
:1004C000070C870E920E47EA811742EA8312A7FBB8
:1004D0000201B6EB0B0164EB00042B0D43EA0C3375
:1004E0005E1844EB1C50DA465146E7FB0201C5F3A7
:1004F00013044FEA0B3343EA14534FEA0432019CCE
:1005000043EA0603A4F10C040294009CCDE900B474
:1005100000F0F8F803B0BDE8F08F00200146F9E7DD
:100520002DE9F04D81EA030404F0004B21F0004571
:1005300014464FF0000A23F0004150EA050220D093
:1005400054EA01021DD0C5F30A570246C5F313034E
:10055000C1F31300C1F30A5640F4801543F480132D
:10056000A7EB0608101BD64608F2FD3873EB050012
:1005700002D308F1010801E092185B41B8F1000FC5
:1005800003DA00200146BDE8F08D00204FF4801111
:10059000064684460EE0171B73EB050705D3121BB6
:1005A00063EB050306434CEA010C49084FEA3000AF
:1005B00092185B4150EA0107EDD152EA030012D0D4
:1005C00082EA040083EA0501084305D0101BAB4111
:1005D00006D20122002306E000224FF0004302E091
:1005E0006FF0010253101AEB06004CEB085110EBB0
:1005F0000A0041EB0B01BDE8F04D00F074B8C1F307
:100600000A52C1F3130140F2FF3341F480119A42C0
:1006100002DA00200146704740F233439A42A2F2C8
:10062000334202DC524200F03CB800F02BB800002C
:1006300030B5041E71F1000404DB4FF00044404269
:1006400064EB0101141E73F1000405DB1C464FF03E
:100650000043524263EB0403994208BF904230BD0D
:10066000064C074D06E0E06840F0010394E80700FF
:1006700098471034AC42F6D3FFF78AFDC83E000815
:10068000E83E0008202A04DB203A00FA02F10020AC
:1006900070479140C2F1200320FA03F319439040C0
:1006A0007047202A04DB203A21FA02F0002170472B
:1006B00021FA02F3D040C2F12002914008431946CA
:1006C0007047202A06DBCB17203A41FA02F043EAB2
:1006D000E07306E041FA02F3D040C2F120029140FB
:1006E00008431946704710B5141E73F1000408DA68
:1006F000401C41F1000192185B411A4301D120F0E6
:10070000010010BD2DE9F04D92469B4611B1B1FAA2
:1007100081F202E0B0FA80F220329046FFF7B2FF99
:1007200004460F4640EA0A0041EA0B0153465A4686
:10073000084313D0114653EA010019D0C8F1400212
:100740005046FFF7AEFF05460E4650465946424614
:10075000FFF798FF084305D0012004E02046394602
:10076000BDE8F08D0020054346EAE0762C43374390
:100770000A986305E40AA0EB08000022FD0A44EA97
:1007800047540A3002D500200146E9E70105101957
:100790006941DDE9084500196941BDE8F04DA2E76E
:1007A00070B58C1810F8015B15F0070301D110F833
:1007B000013B2A1106D110F8012B03E010F8016B60
:1007C00001F8016B5B1EF9D12B0705D40023521EE3
:1007D0000DD401F8013BFAE710F8013BCB1A921C4B
:1007E00003E013F8015B01F8015B521EF9D5A14249
:1007F000D8D3002070BD00BFFEE7704730B1074975
:10080000096841F48061054A116005E003490968FF
:1008100021F48061014A116070470000003C0240F1
:1008200070B504460A460026092502B909E0012AE6
:1008300001D1160205E0022A01D1160201E04FF4AF
:10084000407600F09FF80546092D28D1154800682C
:1008500020F440701349086008460068304308607F
:100860000846006820F0F80008600846006844F078
:10087000020108430B4908600846006840F48030D4
:10088000086000F07FF805460648006820F0020086
:10089000044908600846006820F0F800086028460F
:1008A00070BD0000103C024009201349096801F4A2
:1008B0008031B1F5803F01D101201CE00E4909686B
:1008C00001F0100109B1062015E00B49096801F497
:1008D000807109B102200EE00749096801F0EF01BB
:1008E00009B1072007E00449096801F0020109B1D4
:1008F000082000E0092070470C3C024003480068D3
:1009000040F000400149086070470000103C024080
:1009100030B502460C46092500F034F80546092D8D
:1009200019D10E48006820F440700C490860084650
:10093000006840F4007008600846006840F001005C
:100940000860146000F01EF805460448006820F0B6
:10095000010002490860284630BD0000103C0240FA
:100960000548006800F0004028B1044802490C39ED
:100970000860034808607047103C02402301674547
:10098000AB89EFCD08B509200090FFF78DFF0090EF
:1009900002E0FFF789FF00909DF800000128F8D0E1
:1009A0009DF8000008BDF0B50A4600210023002490
:1009B00000BF3DE0012505FA01F3156805EA0304CF
:1009C0009C4234D105684F000326BE40B543056004
:1009D00015794E00B5400668354305601579012D3F
:1009E00002D01579022D16D185684F000326BE402E
:1009F000B543856055794E00B540866835438560BE
:100A0000456801268E40B5434560456896798E401D
:100A1000B6B235434560C5684F000326BE40B543B6
:100A2000C560D5794E00B540C6683543C560491CE0
:100A30001029BFD3F0BDF0B5002300244D07ED0E03
:100A400002FA05F3CE1000F1200555F826504E07A6
:100A5000F70E0F26BE40B543CF1000F1200646F832
:100A60002750CE1000F1200555F8265045EA030422
:100A7000CE1000F1200545F82640F0BD0AB10183F3
:100A800000E04183704700BFFEE700BFFEE770470C
:100A900070B5002100230F22C4781CB3174C2468C2
:100AA00004F4E064C4F5E064C4F30721C1F1040474
:100AB000E3B20A4144789C40E1B284781440214377
:100AC0000C07210E0E4C05786155047804F01F05C3
:100AD0000124AC4005786D11AD0005F1E025C5F8A5
:100AE000004109E0047804F01F050124AC40054DE5
:100AF0000678761145F8264070BD00000CED00E048
:100B000000E400E080E100E002490143024A116094
:100B1000704700000000FA050CED00E0704700008F
:100B200029B1064A12680243044B1A6004E0034AE2
:100B300012688243014B1A6070470000303802404F
:100B400029B1064A12680243044B1A6004E0034AC2
:100B500012688243014B1A6070470000403802401F
:100B600029B1064A12680243044B1A6004E0034AA2
:100B700012688243014B1A607047000044380240FB
:100B8000F0B5002100220024022500260223324F66
:100B90003F6807F00C0121B1042905D0082937D19D
:100BA00005E02E4F076036E02D4F076033E02A4FF7
:100BB0003F1F3F68C7F38056274F3F1F3F6807F02E
:100BC0003F036EB1264FB7FBF3F7DFF88CC0ACF1F3
:100BD000040CDCF800C0CCF3881C07FB0CF40CE020
:100BE0001E4FB7FBF3F7DFF870C0ACF1040CDCF874
:100BF00000C0CCF3881C07FB0CF4174F3F1F3F6865
:100C0000C7F301477F1C7D00B4FBF5F7076002E0E6
:100C1000124F076000BF00BF0F4F3F6807F0F001A1
:100C20000909104F7A5C0768D74047600A4F3F6850
:100C300007F4E051890A0B4F7A5C4768D740876018
:100C4000054F3F6807F46041490B064F7A5C4768DF
:100C5000D740C760F0BD0000083802400024F4000F
:100C600000127A005800002001461C48814201D23F
:100C7000002070471A48814201D20820F9E719483C
:100C8000814201D21020F4E71748814201D2182096
:100C9000EFE71648814201D22020EAE7144881425A
:100CA00001D22820E5E71348814201D23020E0E755
:100CB0001148814201D23820DBE71048814201D23D
:100CC0004020D6E70E48814201D24820D1E70D48A6
:100CD000814201D25020CCE75820CAE700400008EA
:100CE0000080000800C000080000010800000208A1
:100CF00000000408000006080000080800000A08B8
:100D000000000C0800000E0801460868704700004B
:100D10002DE9F04704460E4617464FF00908002516
:100D2000A946B4F1006F02D304F0030018B14FF0EC
:100D3000FF30BDE8F087FFF713FE0020FFF75EFDF0
:100D4000254604EB87091948854216D213E0284648
:100D5000FFF7DAFF401C68B12846FFF785FF82469F
:100D60000221FFF75DFD8046B8F1090F03D06FF057
:100D70000100DEE72D1D4D45E9D3B8F1090F0DD176
:100D80000AE020463168FFF7C3FD092802D06FF062
:100D90000200CEE7241D361D4C45F2D30120FFF79B
:100DA0002DFDFFF7ABFD0020C3E700000000FF1F93
:100DB000704700000CB50020019000903448006896
:100DC00040F480303249086000BF3148006800F4C8
:100DD000003000900198401C0190009818B90198CB
:100DE000B0F5A04FF1D12A48006800F4003010B1EE
:100DF0000120009001E0002000900098012846D1D9
:100E000023484030006840F080502149403108605C
:100E10002048006840F440401E4908601C480830E3
:100E200000681B49083108600846006840F400402B
:100E300008600846006840F4A05008601648091F82
:100E40000860081F006840F08070091F086000BF3C
:100E50000F48006800F000700028F9D040F20570DB
:100E60000E4908600A480830006820F0030008496D
:100E7000083108600846006840F00200086000BFC2
:100E800003480830006800F00C000828F8D10CBDB9
:100E9000003802400070004008544007003C024007
:100EA000042808D14FF0E021096941F004014FF016
:100EB000E022116107E04FF0E021096921F004010F
:100EC0004FF0E022116170477047000010B51548DF
:100ED000006840F47000134908601348006840F04F
:100EE00001001149086000200F49083108600E48D0
:100EF00000680E4908400C4908600D48091D08604B
:100F0000081F006820F48020091F0860002006499F
:100F10000C310860FFF74EFF4FF000600149803947
:100F2000086010BD88ED00E000380240FFFFF6FECB
:100F30001030002410B50121054800F04CF80128BC
:100F400001D102F0ADFB0121014800F035F810BDE0
:100F50000004004010B5002401210C4800F03BF8CB
:100F6000012812D10121094800F026F80021074884
:100F700000F025F8064802F091FC04462CB1054823
:100F80004460214604A000F0ADF910BD000C004003
:100F9000D80300203C010020E58699E585A5E59B66
:100FA000BAE4BBB6E99499E8AFAFEFBC8C72657454
:100FB0003A25640D0A000000CA430282704721B13D
:100FC000028842F00102028004E002884FF6FE73BC
:100FD0001A400280704730B50246002000230024EA
:100FE000158A05EA0103958905EA010413B10CB1DC
:100FF000012000E0002030BD1AB183890B438381BA
:1010000002E083898B4383817047000000220288BD
:10101000184B98420ED0184B98420BD0B0F1804F2D
:1010200008D0164B984205D0154B984202D0154B6C
:10103000984204D14FF68F731A404B881A43124BD3
:10104000984207D0114B984204D04FF6FF431A4004
:101050000B891A4302804B68C3620B880385054BDA
:10106000984202D0044B984201D18B7A0386012327
:1010700083827047000001400004014000040040EA
:1010800000080040000C0040001000400014004028
:1010900010B540F22551174800F05EF8F8B1154838
:1010A00000F014F9C4B240F22551124800F02CF8B7
:1010B00011480078012813D11048B0F8B014B0F8E6
:1010C000B004401C0D4AA2F8B0041046445400205D
:1010D0000B49086001210A482438FFF770FF08E037
:1010E0000D2C02D10220044908702146054801F068
:1010F0005FFB10BD001001403C010020D803002020
:10110000240C00406C01002010B50022002340F6A2
:101110006A14A14200D100BF0A1201249440A3B274
:10112000DC43048010BD21B1828942F400528281E7
:1011300004E082894DF6FF731A40828170470246AF
:101140000020B1F5007F00D100BF13880B400BB128
:10115000012000E00020704770B502460024002303
:101160000025002040F66A16B14200D100BFC1F34D
:10117000421501F01F03012606FA03F3012D02D1E7
:101180009689334006E0022D02D1168A334001E0F1
:10119000968A33400C12012606FA04F4168834406D
:1011A00013B10CB1012000E0002070BDF0B5034682
:1011B000002400260025002040F66A17B94200D11D
:1011C00000BF1846C1F3421401F01F06012707FAB9
:1011D00006F5012C01D10C3004E0022C01D11030B5
:1011E00000E014301AB107682F43076002E0076877
:1011F000AF430760F0BD00002DE9FF4705460E46EE
:101200000024A14600BFA046B08900B100BF2C8ACF
:1012100024F44054F08804432C82AC8941F20C60E1
:101220008443B08831890843718908430443AC8101
:10123000AC8A24F44074B0890443AC826846FFF75A
:101240009FFC2048854202D01F48854202D1DDF82C
:101250000C9001E0DDF80890A88900F4004040B14E
:1012600009EBC90000EB091031684900B0FBF1F748
:1012700007E009EBC90000EB091031688900B0FBF9
:10128000F1F76420B7FBF0F004012009642101FBB1
:101290001078A88900F4004040B1322000EBC8006B
:1012A000B0FBF1F000F00700044308E0322000EB4F
:1012B00008106421B0FBF1F000F00F0004432C8112
:1012C000BDE8FF87001001400014014001468888F6
:1012D000C0F308007047C1F308028280704700BF66
:1012E000FEE700000FB4054B10B503A9044A0298AD
:1012F00000F0DAF810BC5DF814FB0000951D000842
:101300006800002002E008C8121F08C1002AFAD1B4
:1013100070477047002001E001C1121F002AFBD175
:10132000704700002DE9FF5F82B00021DDE9043045
:10133000020DDDF840B0034318D044F61050A2F27D
:10134000FF3242431514119801281FD0A5EB0B0062
:10135000401C5FEA000A4FF000064E4FDFF838915C
:10136000B046504615D5CAF1000413E01198012487
:101370004AA3012801D16FEA0B010298119AC0E932
:101380000031C0E9024206B0BDE8F09FCBF1000099
:10139000DFE704460021404A491842EB0450CDE9FA
:1013A000001012E0E00707D032463B46404649466F
:1013B000FFF744F88046894632463B4610461946B8
:1013C000FFF73CF806460F466410002CEAD1DDE931
:1013D0000401DDE90023BAF1000F06DAFFF72EF869
:1013E00042464B46FFF72AF805E0FFF799F84246D8
:1013F0004B46FFF795F804460E460022284BFFF7B0
:1014000017F903D84FF0FF30014607E00022254BC3
:1014100020463146FEF76BFFFFF7F1F8102409E094
:10142000002C0ADB0A220023FEF730FF039B303238
:101430001A55641E50EA0102F2D1641C039AC4F1E9
:1014400011031444119A012A03D0012208430DD13B
:101450000AE0084304D000204FF0110B119072E70E
:10146000A3EB0B056D1E0DE05B4504DD4FF00002A4
:1014700005F1010504E003DA4FF00002A5F10105D2
:10148000002AECD002981199C0E90231C0E9004568
:1014900079E70000000014400000F03F3000000039
:1014A0000000F0430000E03F2DE9FF4F95B09B4660
:1014B0008946064600250FE2252877D100242746D5
:1014C000F84A0121059400E0044316F8013F203B4F
:1014D00001FA03F01042F7D130782A2811D06FF0CA
:1014E0002F033078A0F13002092A16D8059A44F06B
:1014F000020402EB820203EB42021044761C0590C8
:10150000EFE759F8042B0592002A03DA504244F41D
:101510000054059044F00204761C30782E2816D131
:1015200016F8010F44F004042A280DD06FF02F02A2
:101530003078A0F13003092B09D807EB870302EBC1
:101540004303C718761CF3E759F8047B761C307800
:101550006C280FD006DC4C2817D068280DD06A28DC
:1015600014D104E0742810D07A280FD10DE044F48F
:1015700000140AE044F4801401E044F4401472784A
:10158000824202D104F58014761C761C30786628DD
:101590000BD013DC582877D009DC002875D04528FB
:1015A000F6D04628F4D047281AD19DE118E06328E8
:1015B00035D0642879D0652812D195E1702873D090
:1015C00008DC6728F1D069286FD06E280DD06F280D
:1015D00006D1B5E073282CD0752875D0782874D042
:1015E0005A46179990476D1C75E1C4F302500228C2
:1015F00009D003280DD0D9F8001004280DD00D60B3
:1016000009F1040967E1D9F80010EA17C1E90052AD
:10161000F6E7D9F800100D80F2E70D70F0E719F841
:10162000041B8DF8001000208DF80100EA4601200F
:1016300003E059F804AB4FF0FF3061074FF00001B1
:1016400002D40DE008F101018846B9420FDA804565
:10165000F8DB1AF808100029F4D108E008F10101BC
:1016600088468142FADB1AF808100029F6D105985D
:101670005B46A0EB080721463846179A00F094FA1B
:10168000284400EB080507E04DE029E10DE01AF8D9
:10169000010B5A4617999047B8F10108F7D25B46FB
:1016A00021463846179A13E142E00A220092C4F319
:1016B00002524FF0000A022A08D059F804CB032A3C
:1016C0004FEAEC710AD00DE029E02AE009F10701A8
:1016D00021F00702F2E802C1914609E00FFA8CFC02
:1016E0004FEAEC71042A03D14FFA8CFC4FEAEC71FB
:1016F000002907DA0A460021DCF1000C61EB020147
:101700002D2202E0220504D52B228DF8042001228F
:1017100003E0E20701D02022F7E7904659E00A21D2
:1017200002E010220DE010214FF0000A00910BE0C2
:1017300010224FF0000A44F004040827009203E04E
:1017400008224FF0000A0092C4F30252022A05D088
:1017500059F804CB0021032A08D009E009F1070158
:1017600021F00702F2E802C1914605E01FFA8CFC65
:10177000042A01D10CF0FF0C4FF00008220728D5F5
:10178000702806D0009B83F0100353EA0A0305D0AB
:101790000EE040228DF80420012208E05CEA0102FC
:1017A00006D030228DF804208DF8050002229046E4
:1017B000009B83F0080353EA0A030AD15CEA0102A2
:1017C00001D1620705D530228DF804204FF00108C1
:1017D0007F1E582804D034A003900EA802900DE07C
:1017E00036A0F9E753466046009AFEF74FFD84465F
:1017F0000398825C0298401E029002705CEA01002D
:10180000F0D1029806A9081A00F1200A600702D553
:1018100024F4803400E00127574502DDA7EB0A00DD
:1018200000E0002000EB0A01009005984144401AB6
:101830000590E00306D45B462146179A059800F010
:10184000B3F90544002706E001A85A46C05D179980
:1018500090476D1C7F1C4745F6DBE0030CD55B46CB
:101860002146179A059800F09FF9054404E03020BE
:101870005A46179990476D1C0099481E0090002900
:10188000F5DC08E0029802995A460078491C02915A
:10189000179990476D1CBAF10001AAF1010AF1DC19
:1018A00065E1000009280100303132333435363724
:1018B000383961626364656600000000303132339C
:1018C000343536373839414243444546000000003C
:1018D00000F058F90544761C307800287FF4ECAD10
:1018E00019B02846BDE8F08F620700D4062709F139
:1018F000070222F0070CFCE80223E14603F000484F
:101900005FEA080C02D00FF2702C0DE05FEA045C75
:1019100002D50FF2682C07E05FEAC47C02D00FF218
:10192000602C01E0AFF2700C4FF0FF3823F0004361
:10193000CDF850C065280CD006DC452809D04628D3
:101940001DD047283DD13DE0662818D067287ED1BC
:1019500038E00021112F01DB112000E0781CCDE9D7
:10196000000106A90EA8FFF7DDFCDDE90F010E9AC4
:1019700003910021009207F1010A04914DE04FF01C
:1019800000400097CDE9011006A90EA8FFF7CAFC98
:10199000DDE90F0203920E9B11990022DDF80CA0E5
:1019A0000093049211B9791C00EB010AB7EB0A000D
:1019B00004D4C0F1FF3007F1010A0490AAEB07003C
:1019C000019044E0012F00DA01270021112F01DDF1
:1019D000112000E03846CDE9000106A90EA8FFF766
:1019E000A1FCDDE90F010E9A039100210491009200
:1019F000BA4621070CD40399514500DA8A46BAF158
:101A0000010F05DD009AAAF10101515C302908D0CF
:101A1000B84202DA10F1040F06DA0121CDE9011013
:101A200015E0AAF10101E9E7002805DC0499014469
:101A30000491AAEB000102E0411C514500DD8A46F9
:101A40000499401A401C01904FF00040029020077A
:101A500004D40198504501DBCDF8048000208DF8B6
:101A60004F0002980DF14F07B0F1004F25D02B2009
:101A70000E9002984FF0020800280CDA40420290C3
:101A80002D200E9007E00A210298FEF7E9FB303185
:101A9000029007F8011DB8F10001A8F10108F2DC7D
:101AA00002980028EFD1791E0E980870307800F067
:101AB000200040F0450007F8020D12A8C01B00F1FD
:101AC00007081498007800B1012000EB0A01019882
:101AD00001EBE07105984144401A401E0590E00377
:101AE00006D45B462146179A059800F05DF8054438
:101AF0001498007818B15A46179990476D1CE00366
:101B000024D55B462146179A059800F04DF8054408
:101B10001CE00498002807DBDDE90301884203DDAF
:101B20000098405C179901E0179930205A46904779
:101B3000049805F10105401C04900198401E019095
:101B400004D12E205A46179990476D1CBAF1000116
:101B5000AAF1010ADDDC05E017F8010B5A461799D6
:101B600090476D1CB8F10001A8F10108F4DC5B4658
:101B70002146179A0598ABE62D0000002B000000C7
:101B8000200000002DE9F041044600251E461746BE
:101B9000880404D405E039462020B0476D1C641E3B
:101BA000F9D52846BDE8F0812DE9F041044600252D
:101BB0001E469046C80301D5302700E02027880440
:101BC00004D505E041463846B0476D1C641EF9D582
:101BD0002846BDE8F081000010B54FF4A060FEF784
:101BE00093FFA82000F064F800F03EFA0EA0FFF783
:101BF00079FB01F09DFD13A0FFF774FB01F018FDC8
:101C000018A0FFF76FFB00F06FF91FA0FFF76AFB4A
:101C10002449254801F0D9FC2449086008A0FFF7B1
:101C200061FB01F015FE10BDE4B8B2E58FA3E588B5
:101C30009DE5A78BE58C96E68890E58A9F2E2E2E53
:101C40000D0A0000E5AE9AE697B6E599A8E5889DED
:101C5000E5A78BE58C96E68890E58A9F2E2E2E0DC3
:101C60000A000000E4BFA1E58FB7E781AF47504904
:101C70004FE5889DE5A78BE58C96E68890E58A9FE1
:101C80002E2E2E0D0A000000E68C89E994AEE58820
:101C90009DE5A78BE58C96E68890E58A9F2E2E2EF3
:101CA0000D0A0000493600086136000810010020C6
:101CB00010B504466FF00400FFF7F2F8E11704EBEB
:101CC0005171C1F3C701074A11701046007800EB4B
:101CD0004001C1EBC0104FF6FF7101EAC00002499C
:101CE000088010BD00000020020000200146114ABB
:101CF00012784A434FF0E0235A6100229A611A4653
:101D0000126942F001021A6100BF4FF0E02210692F
:101D100000F001021AB100F48032002AF5D04FF031
:101D2000E022126922F001024FF0E0231A61002242
:101D30009A6170470000002070B5002413480068C5
:101D4000012822D100BF1EE000F032F8054604EB66
:101D500044000F4901EB80008068281A04EB44011D
:101D60000B4A02EB8101C98888420AD304EB440084
:101D7000114601EB8000856004EB440152F821001C
:101D80008047601CC4B2032CDED370BD0C01002060
:101D90001401002000BF054A128802F04002002A08
:101DA000F9D0C2B2014B9A80704700000010014088
:101DB000014800687047000084000020014908784D
:101DC00070470000C400002017B583B0044601210D
:101DD0000498FEF7A5FEBDF814000190BDF81600AA
:101DE00000F00F008DF80800BDF8160000F00F009D
:101DF000012805D1BDF81600C0F300108DF80A00C7
:101E0000BDF81600C0F343108DF80900BDF81600A8
:101E1000C0F341208DF80B0001A92046FEF7C3FD59
:101E200006B010BD10B5044620680B490840B0F15B
:101E3000005F0ED16068094908602068FEF7B3F9B9
:101E4000012080F3108800BF04480068804701200B
:101E500010BD0020FCE700000000FE2FC0000020A5
:101E60002DE9F84F8046894692464FF0000B002539
:101E7000CDF8008000264C46002700BF24E0E07823
:101E80000506A07845EA0045607845EA00252078F7
:101E90000543241D3046711C8EB2124941F8205072
:101EA000B6F5007F0ED100264FF400720098FEF7C1
:101EB0002FFFC7B217B13846BDE8F88F009800F57C
:101EC000006000900BF1040BD345D8D346B13246E5
:101ED00004490098FEF71CFFC7B20FB13846EBE784
:101EE0000020E9E700F0012010B5034806C80348C8
:101EF000FFF76AFF10BD0000B8000020001002408C
:101F000010B50248006801F075FB10BD10010020FB
:101F100010B511480078012802D101F06FFD1AE0D8
:101F20000D480078B8B90D480068401C0B4908609E
:101F300008460068B0F5FA7F0DD10948406800F006
:101F40007F40B0F1006F06D10548FFF76BFF10B975
:101F500004A0FFF7C7F910BD3C01002038010020A4
:101F600000000108415050E59BBAE4BBB6E4B88DCF
:101F7000E5AD98E59CA85C720A000000704700007F
:101F8000002000BF1FE000EB4001124A02EB81017C
:101F900089884FF47A7292FBF1F100EB40020D4B0D
:101FA00003EB8202D18000EB40011A4602EB810173
:101FB000C988012905DA012100EB400203EB820206
:101FC000D180411CC8B20328DDD30121024A11602F
:101FD00070470000140100200C010020FFF7FCFDF9
:101FE000FFF7CEFF01E0FFF7A7FEFCE7F0B50B30EF
:101FF000154D20F007010024144A0FE003688B42BE
:102000000BD38B4205D95E1A43184768C3E90067B2
:1020100000E04368136002C004E0021D106800285D
:10202000ECD12046002802D1286808B10020F0BD7C
:10203000064A07481060074A121A22F00702C0E950
:10204000002401202860D7E7480100204401002037
:1020500094080020900A0020014802490860704757
:102060000400FA050CED00E000B587B0084903C98B
:10207000084BCDE9040108330FCB8DE80F0005486C
:1020800005490CC8054801F073FB07B000BD00000E
:10209000B000002098000020001001400000024025
:1020A0000149087070470000C4000020014600206C
:1020B00009E0074A52F820201AB9054A42F82010D0
:1020C0007047421C10B20528F3DB00BFF8E70000A0
:1020D0004C01002010B504460121204600F073F8A1
:1020E00010BD000010B50446226891682069FEF713
:1020F0009AF860B994F8600020F00100401C84F860
:10210000600008480168204601F048FA04E00548EC
:10211000416B204601F042FA0020A0810021E181BC
:1021200010BD0000040000200246087848B148783D
:1021300000F00F00082804D0087813681B781840B6
:1021400050B192F8600000F0010018B94878C0F36F
:10215000001008B1002070474FF0FF30FBE700008F
:1021600010B500F0E1FA044624B10348816B204623
:1021700001F014FA10BD00000400002070B5044600
:10218000A189E089081A05B205E02021204601F066
:102190008BF9681E05B2002DF7DC217B204600F08C
:1021A0007FF870BD10B500F0BFFA044614B12046A8
:1021B00000F032FD10BD10B504464FF0FF3120464F
:1021C00000F001F810BD2DE9F04104460D46681CF1
:1021D00008B9012000E000200746E08908B9012D78
:1021E00005D0E089A189884203D1681C08B9BDE8FF
:1021F000F081E089A189884210D1012D0ED1E089BA
:10220000401EE081A089401EA0810021A289206992
:1022100081540121204600F043F83FE038460AE0AF
:10222000E18901442269525CE1890144491E236924
:102230005A54411C08B2A289E189511A8142EFDC4B
:10224000A089401EA08137B9E089401EE0810821A5
:10225000204601F029F90021A28920698154E089F2
:1022600006B206E02069815D204601F01DF9701C70
:1022700006B2A089B042F5DC2021204601F014F915
:10228000A189E089081A401C06B205E00821204611
:1022900001F00AF9701E06B2002EF7DC00BFA6E7B7
:1022A00070B505460C4603E004A1284601F076F916
:1022B000201EA4F10101CCB2F6D170BD08200800A7
:1022C00010B504464FF0FF31204600F02BFB10BD47
:1022D00010B50446204600F005F80121204601F023
:1022E000EDF810BD70B50446A08900B970BD00219D
:1022F000A2892069815494F8600000F0010010B3B5
:10230000204600F070FB204600F092FD0021E181A4
:10231000A181E08E00B9E9E70DA1204601F03EF968
:1023200000232046A26D616900F063FE054625B1D9
:102330002946204600F006FE04E006488169204652
:1023400001F02CF902E02046FFF7CCFE00BFCDE7FC
:102350000D0A00000400002010B5024611460020BE
:102360000B78302B07D14B78782B02D04B78582B39
:1023700001D103200EE00B78302B07D14B78622B74
:1023800002D04B78422B01D1012003E00B78302B97
:1023900000D1022006E00B782E2B03D14B780BB135
:1023A000042003E011F8014B002CF4D100BF10BD54
:1023B0000246511C00200B785C2B1AD14B786E2BF7
:1023C0000ED004DC302B0FD0622B0FD104E0722B27
:1023D00004D0742B0AD105E0082009E00D2007E0A5
:1023E0000A2005E0092003E0002001E0487800BF52
:1023F00000E00878704700002DE9F84F05464FF0DF
:10240000000A4FF00A0B2C460020009001260027FE
:102410009FED330A10EE109A804628782D2800D1BF
:10242000B61E711C09B9012100E000214819FFF70F
:1024300093FF8246BAF1010F0FD0BAF1020F07D015
:10244000BAF1030F0ED14FF0100B022000900AE0FA
:102450004FF0080B0120009005E04FF0020B022026
:10246000009000E000BF00BF00982918701C08B958
:10247000012000E000200C1811E020782E2803D164
:102480004FF00108641C0AE0207800F0F2F807FB26
:102490000B0708EB88004FEA4008641C00BF207857
:1024A0000028EAD1BAF1040F17D1B8F1000F14D007
:1024B00000EE107AB8EE401A00EE108AB8EE400A2C
:1024C000C1EE000A00EE106AB8EEC00A20EE800AE3
:1024D00010EE109A4846BDE8F88F07FB06F0FAE7C1
:1024E0000000000070B505460C462078272805D16D
:1024F000607818B12046FFF75BFF70BD20782D286B
:1025000005D02078302806DB2078392803DC2046E7
:10251000FFF772FFF1E72078242806D1607820B118
:102520002146284600F02EF8E7E7207818B120462B
:1025300000F003F8E1E70020DFE770B50446254628
:1025400000262078222802D1601C0446054613E0AC
:1025500028785C2805D1681EFFF72AFFA0556D1C5E
:1025600007E02878222802D10020A05501E0287831
:10257000A0556D1C701C86B228780028E8D1A055A3
:10258000204670BD70B504460D460023691C2046E8
:10259000A26D00F02EFD064626B13146204600F021
:1025A000DDF870BD0020FCE72DE9F0438BB08146DB
:1025B0000C4615461F46202103A8FDF722FEA078F1
:1025C00000F00F01681E814203DDA07800F00F00CB
:1025D00000E0681E8046002609E0701C57F82010B5
:1025E0004846FFF77FFF03A941F82600761C681EC6
:1025F000B042F2DCB8F1080F38D2DFE808F0040985
:102600000D12171C232CA06880470BB0BDE8F08387
:102610000398A1688847F8E7DDE90301A2689047BD
:10262000F3E703A807C8A3689847EEE703A80FC815
:10263000A668B047E9E70798009003A80FC8A66806
:10264000B047E2E7DDE90701CDE9000103A80FC8C3
:10265000A668B047D9E7DDE907120998CDE900126D
:10266000029003A80FC8A668B047CEE74FF0FF302E
:10267000CBE70146302905DB392903DCA1F1300025
:10268000C0B27047612905DB662903DCA1F1570060
:10269000C0B2F6E7412905DB462903DCA1F137008A
:1026A000C0B2EEE70020ECE70146487800F00F00EA
:1026B000012801DCC8687047487800F00F0007283F
:1026C00001DCC868F7E7487800F00F00082801DC53
:1026D000C868F0E7C868EEE710B50446002004E0DB
:1026E0003021104A1154411CC8B20928F8DB607827
:1026F00000F00F00012801DC606810BD607800F078
:102700000F00072801DC6068F7E7607800F00F0031
:10271000082801DC6068F0E70249606800F08FFE7D
:102720000048EAE760010020002111E00A4850F863
:10273000210058B1084850F8210090F86000C0F31B
:10274000400018B1044850F821007047481C01B2FD
:102750000529EBDB0020F8E74C01002070B50646A8
:102760000C460025607800F00F00801E06281BD262
:10277000DFE800F003060A0D0E10A068056814E0FB
:10278000A068B0F9005010E0A06805780DE000BF27
:10279000A5680AE0A068406818B1A26803CA884723
:1027A00000E00020054600E000BF00BF284670BDE5
:1027B0002DE9F04704468846B8F1000F01D1BDE885
:1027C000F08718274FF00009208F00F47F4018B1E0
:1027D00000276FF0FF090EE0A06B00F47F0018B136
:1027E0000827DFF8B49006E0A06B00F07F4010B13E
:1027F00010274FF07F49A66D00253DE006EB051040
:10280000407800F00F00092834D106EB051120466E
:10281000FFF78AFC70BB06EB0510406800EA090070
:10282000A16B884226D106EB05104068FF21B94014
:10283000084008FA07F188421CD108FA07F1A06B9A
:102840000843A0634FF0000847B106EB051040684D
:10285000A7F10801FF228A40104058B906EB051085
:10286000806820B106EB051081682046884700216A
:10287000A16305E0681C05B25C20005BA842BDDCDA
:1028800000BFB8F1000F05D00021A16341462046EA
:1028900000F0C0FA00BF92E70000FFFF2DE9F04111
:1028A00004460E46FFF740FF05460DB9BDE8F0812E
:1028B000012C03D1284600F0A5F92DE0012C2BDDD9
:1028C000AA6D00232846716800F093FB0746EFB11C
:1028D0001248C16A284600F061FE3846FFF7FCFE48
:1028E00080464146284600F059FE0DA1284600F0DA
:1028F00055FE3846FFF7D8FE80464146284600F090
:102900004DFE07A1284600F049FE04E00348816916
:10291000284600F043FE00BF00BFC7E704000020C8
:102920000D0A000070B504460D46002D25DDB4F9F2
:1029300054105420005B401E02B254200253502019
:10294000025B5220005B824202DD5020005B01E00E
:102950005220005B404281421DDC5020015B52202E
:10296000005B814202DD5020005B01E05220005BF1
:10297000404201B2542001530DE0002D0ADA5420E8
:10298000005B401C01B254200153002903DD0021EB
:10299000015370BDFDE72046FFF7F0FB5420005BBC
:1029A00018B90021A181E1811BE05220005B401D8C
:1029B000B4F954100844052190FBF1F201FB120117
:1029C00004F13C0050F821603146206900F078FCA9
:1029D000A08100B9DDE7A189E1812046216900F0ED
:1029E000DDFD00BFD5E710B504460021542001539A
:1029F0005020005B002810DD5222125B21690AB9C9
:102A0000052201E05222125B521E04F13C0353F8EE
:102A10002200FDF708FC00B910BD5222135B04F13F
:102A20003C0252F82300216900F04AFC28B15220F0
:102A3000005B401C81B2522001535020005B401CBF
:102A400081B250200153052901DD05210153522097
:102A5000005B052802DB00215220015300BFDBE7A9
:102A60002DE9F04104460D4616460020A0810021C4
:102A7000E181542001535020015352200153002082
:102A8000206094F8600020F00100401C84F8600091
:102A90002561062096FBF0F0A086002009E0A28EBA
:102AA000411C02FB015204F13C0141F82020411C71
:102AB00008B20528F3DB0E48A0650E480C49401A01
:102AC000C0F30F115C2001532046FFF7EFFA0023FB
:102AD00009A12046A26D00F08CFA0746394620462F
:102AE00000F0CAFA0121204600F0E8FCBDE8F081C0
:102AF000E83E000838400008626F6F740000000074
:102B000070B504460D46A189A08E401E81420DDBA2
:102B100030484168204600F041FD0121204600F088
:102B2000CDFC2046216900F039FD70BDE089A18906
:102B3000884210D1A189481CA081206945540021F8
:102B4000A28920698154E089401CE0812946204601
:102B500000F0AAFC3CE0E089A189884238DAA28929
:102B6000E189511A08B20AE0E1890144491E22694B
:102B7000525CE189014423695A54411E08B200287D
:102B8000F2DCE189481CE081206945540021A089DC
:102B9000401C80B22269A0811154E089401E06B217
:102BA00006E02069815D204600F07EFC701C06B2C4
:102BB000A089B042F5DCA189E089081A06B205E0D7
:102BC0000821204600F070FC701E06B2002EF7DCD3
:102BD00000BFAAE70400002010B5FFF7A5FD0446DA
:102BE00014B1204600F092F810BD10B50446E089FB
:102BF000002806DD0821204600F056FCE089401E32
:102C0000E08110BD10B50446204600F005F82046CE
:102C100000F0D4F810BD000070B50546AE6D104848
:102C20008168284600F0BAFC002413E006EB04108B
:102C3000407800F00F0001280ADC06EB041128465A
:102C4000FFF772FA20B906EB0411284600F00AF8E3
:102C5000601C04B25C20405BA042E7DC70BD000059
:102C6000040000202DE9F04106460C462046FFF7FF
:102C700033FD07463946304600F090FCC0F116009F
:102C800005B2002D01DD284600E00420054600BF06
:102C90002D21304600F008FC681E00B2051EF7D159
:102CA000607800F00F00012805DC1748016C304601
:102CB00000F074FC25E0607800F00F00072805DCC8
:102CC0001148416C304600F069FC1AE0607800F071
:102CD0000F00082805DC0C48816C304600F05EFCD3
:102CE0000FE0607800F00F00092805DC0648C16C91
:102CF000304600F053FC04E00348016D304600F01C
:102D00004DFCBDE8F08100000400002070B50646CF
:102D1000B56D13484169304600F040FC00241AE0CC
:102D200005EB0410407800F00F00082811DD05EBDA
:102D30000410407800F00F0009280ADC05EB0411AC
:102D40003046FFF7F1F920B905EB04113046FFF7E3
:102D500089FF601C04B25C20805BA042E0DC70BD97
:102D60000400002070B50646B56D13480169304671
:102D700000F014FC00241AE005EB0410407800F089
:102D80000F00072811DD05EB0410407800F00F005C
:102D900008280ADC05EB04113046FFF7C5F920B915
:102DA00005EB04113046FFF75DFF601C04B25C20A8
:102DB000805BA042E0DC70BD0400002070B50646D8
:102DC000B56D1348C168304600F0E8FB00241AE0F6
:102DD00005EB0410407800F00F00012811DD05EB31
:102DE0000410407800F00F0007280ADC05EB0411FE
:102DF0003046FFF799F920B905EB04113046FFF78B
:102E000031FF601C04B25C20805BA042E0DC70BD3E
:102E10000400002070B504460D4694F8600020F0D0
:102E2000040084F8600029462046FFF769FE70BD63
:102E3000F0B500220123002106E0002500F1140472
:102E400044F821504C1C21B20829F6DB0024C4862A
:102E5000002130E032B90469645C202C25D004697B
:102E6000645C14B30469645C222C04D10AB90124A3
:102E700000E000242246012B0CD1C48E082C08DA75
:102E800004696518C68E741CC48600F1140444F8E5
:102E9000265000230469645C5C2C0AD14C1C056933
:102EA0002C5D34B14C1CA1B203E0002504696554CB
:102EB00001234C1CA1B284898C42CBDCF0BD70B5DF
:102EC000044600252BE004F1140050F8250000789A
:102ED00022280CD1002104F1140050F825000170C3
:102EE00004F1140050F82510491C40F8251004F195
:102EF000140151F82500FDF78FF986B204F1140092
:102F000050F82510701E085C222806D1002104F11B
:102F1000140050F82520701E1154681C85B2E08EF4
:102F2000A842D0DC70BD10B50446E089A189884272
:102F300007DAE289501CE0812069815C204600F0BC
:102F4000B3FA10BD70B504460D46002694F8600033
:102F500020F00200801C84F86000687800F00F0008
:102F600088B92046FFF7ABFFE08E04F11401AA6890
:102F7000904706466878C0F3401040BB3146204673
:102F800000F0C6FA2DE0687800F00F00012810D19B
:102F9000E28E04F1140329462046FFF705FB06469E
:102FA0006878C0F3401090B93146204600F0B0FA7E
:102FB00017E0687800F00F00022809DB687800F05D
:102FC0000F00072804DC2946204600F003F908E03A
:102FD000687800F00F00082803D12946204600F049
:102FE0004BF894F8600020F0020084F8600030464E
:102FF00070BD2DE9F05F0646884614461F465C20EA
:10300000805BB16D611AA0EB11101FFA80F90025E9
:103010002DE004EB0510407800F00F00092805D0E2
:1030200004EB05113046FFF77FF800B11DE004EB1B
:103030000510FFF751FB82466FB951464046FDF738
:10304000F2F8834651464046FDF7EDF860B904EBCF
:103050000510BDE8F09F3A4651464046FDF7F1F8AD
:1030600010B904EB0510F4E700BF681C85B24D45AC
:10307000CFDB0020EDE7000070B504460D4625606B
:10308000A86858B1A868FDF7C7F838B1E08E0228E3
:1030900006DBA169A868FDF7C6F808B9012000E0C1
:1030A000002094F8601060F3000184F86010084874
:1030B000816B204600F072FA94F8600000F0010085
:1030C00020B103480168204600F068FA70BD000096
:1030D000040000202DE9F04106460F46FFF724FBCF
:1030E000054615B90020BDE8F08100233146284689
:1030F000AA6DFFF77EFF044634B91148816A28465D
:1031000000F04CFA0020EEE7607800F00F00022893
:1031100004DB607800F00F0007280ADD31462846FE
:1031200000F03CFA0648416A284600F037FA0020D1
:10313000D9E73A462146284600F004F8D3E70000D4
:103140000400002070B506460C4615466078C0F3B2
:10315000801028B11E48016A304600F01FFA32E0A4
:10316000607800F00F00801E06282AD2DFE800F009
:1031700003060A0D1218A068056023E029B2A068B2
:1031800001801FE0A06805701CE02946A06800F0DF
:1031900097F817E00E48C169304600F0FFF911E0DA
:1031A000A068806860B1A068006828B1A1688A68DA
:1031B00008682946904703E0A06881682846884748
:1031C00000E000BF00BF2146304600F003F870BDAC
:1031D00004000020FEB505460C4626A207CA8DE86D
:1031E000070021462846FFF7B9FA074628466168D6
:1031F00000F0D4F922A1284600F0D0F9607800F060
:103200000F0005280CD11FA1284600F0C7F9394648
:10321000284600F0C3F91BA1284600F0BFF921E0C1
:103220006946384600F0E0F8C0F10B0069464618E0
:103230003146284600F0B2F913A1284600F0AEF955
:10324000002004E030210DF80010411C08B20B28CA
:10325000F8DB6946384600F0F2F86946284600F087
:103260009DF900BF00BF0AA1284600F097F9384633
:10327000FEBD000030303030303030303030300083
:10328000203D2000220000002C20307800000000AB
:103290000D0A000030B502460B460020002108E070
:1032A000545C5D5CAC4200D008E0441CA0B24C1CF5
:1032B000A1B2545C14B15C5C002CF1D100BF30BDF4
:1032C0000246002003E00B5C1354431C98B20B5CD5
:1032D000002BF8D1135470472DE9F84F0446B4F889
:1032E00034A04FF000080025A08938B92046FFF728
:1032F00089FC0121204600F0E1F870E0A089002857
:103300006DDD0021A28920698154A66D002737E078
:1033100006EB07112046FEF707FF78BB06EB071008
:10332000FFF7DAF9834659462069FFF7B3FFA18911
:10333000884223D1F5B1012D03D12AA1204600F006
:103340002DF906EB08112046FFF78CFC06EB071061
:10335000FFF7C2F9834606EB0810FFF7BDF959469F
:103360000090FFF797FF8146CA4501DD484600E01F
:10337000504682461FFA87F8681C85B2781C07B24F
:103380005C20005BB842C3DC0DB9BDE8F88F012DAD
:1033900002D12046FEF7F2FE4DB106EB0810FFF712
:1033A0009BF9074639462069FFF78AFFA081012D66
:1033B0000ADD06EB08112046FFF754FC01212046E8
:1033C00000F07CF8A4F80CA00021A28920698154A7
:1033D000A189E1812046216900F0E0F800BF00BF2B
:1033E000D3E700000D0A000030B502460B24134657
:1033F000002A00DA53420020C8720DE00A2093FB35
:10340000F0F500FB15303030C5B2601EC0B2044686
:103410000D540A2093FBF0F3002BEFD1002A04DABD
:103420002D25601EC0B204460D5422B93025601E01
:10343000C0B204460D54C4F10B0040B230BD30B5EB
:1034400002460B460824002018720EE002F00F011D
:10345000092902DD01F1570001E001F13000C5B298
:10346000601EC0B204461D541209002AEED1C4F1F8
:10347000080040B230BD10B5044601212046FFF7D8
:1034800051FA10BD10B5FFF74FF9044614B12046AC
:10349000FFF768FC10BD10B5FFF746F9044614B1FC
:1034A0002046FFF78BFC10BD70B504460D4628463C
:1034B000A16E88473220FEF719FC70BD70B5044636
:1034C0000D4694F8600000F0010090B11DB10CA110
:1034D000204600F063F820684168204600F05EF85E
:1034E00008A1204600F05AF807A1204600F056F83F
:1034F00004E00648016B204600F050F870BD000063
:103500000D0A00003A0000003E20000004000020E8
:10351000FEB505460C4618A2D2E900109268CDE926
:103520000102009117A1284600F038F869462046AC
:10353000FFF75AFFC0F10B0069464618314628468E
:1035400000F02CF812A1284600F028F8002004E032
:1035500030210DF80010411C08B20B28F8DB694639
:103560002046FFF76CFF6946284600F017F80AA1CD
:10357000284600F013F8FEBD3030303030303030A7
:103580003030300052657475726E3A2000000000D1
:103590002C203078000000000D0A000070B50546B0
:1035A0000C460026A86E08B9002070BD08E014F88B
:1035B000010BA96E8847701C86B26420FEF796FB4B
:1035C00020780028F3D13046EFE770B506460D4667
:1035D00000240C20FEF70AFD0446002020606060F5
:1035E000A060A8476660A56001206070A0702046BA
:1035F00070BD000010B50446FEF7DAFB0A49096801
:1036000088420FD0FEF7D4FB0749086008460068DF
:103610000649096890FBF1F201FB120010B920463F
:1036200000F02AF810BD0000940000209000002057
:1036300010B5034806C80348FEF7C6FB10BD0000DE
:10364000880000200014024010B503488188012240
:103650000248FDF713FA10BD880000200014024054
:1036600010B50348818800220248FDF707FA10BD13
:10367000880000200014024010B50446A0780128FC
:103680000DD16078012804D1606880470020607007
:1036900005E0607818B9A06880470120607010BD0F
:1036A00002480068401C01490860704784000020FF
:1036B0000FB47FB505460C4601212846FDF740FAB8
:1036C0000A9880B20290BDF82A00ADF80400BDF857
:1036D0002C00C0B2ADF80600BDF82E00C0F30B0000
:1036E000ADF80C0001A92046FDF790FC012211461F
:1036F0002046FDF781FC9DF830008DF800009DF814
:1037000031008DF801009DF832008DF80200012093
:103710008DF803006846FDF7BBF99DF8330000F013
:1037200001012046FDF74BFC7FBC5DF814FB000057
:1037300008B50B488068009009480A490CC8022067
:10374000FFF7B6FF084880680090074807490CC893
:103750000820FFF7ADFF00210448FDF730FC08BD4D
:103760006C0000200004004078000020000C0040A5
:103770000FB430B585B005460C4601211098FDF711
:10378000CFF901210A98FDF7EBF99DF83A209DF851
:1037900038102846FDF74FF99DF83A209DF839106A
:1037A0002846FDF748F92846DDE91012FEF70CFB24
:1037B0000B980190BDF83000ADF80800BDF832005C
:1037C000ADF80A00BDF83400C0F30B00ADF80C00F2
:1037D000BDF83600C0F30B00ADF81000BDF83600A0
:1037E000000BADF80E0001A92046FDF705FD0122F2
:1037F00040F225512046FDF7D9FC01212046FDF776
:1038000092FC9DF83B008DF800009DF83C008DF87F
:1038100001009DF83D008DF8020001208DF80300A5
:103820006846FDF735F905B030BC5DF814FB0000C3
:1038300010B5044621460548FDF74DFD00BF802127
:103840000248FDF77CFC0028F9D010BD00100140B3
:1038500010B50548054988664FF4007204490348CD
:10386000FFF7FEF810BD0000753800086C0100205D
:10387000D801002010B5044621460248FDF72BFD73
:1038800010BD00000010014010B501200249087071
:103890000420FEF705FC10BD3C01002070B5054674
:1038A0002C785048407830B101281ED0022860D0D2
:1038B000032819D173E0012C01D0022C14D102206D
:1038C00048490870484848600846C16A0620884749
:1038D0000A20FEF70BFA4348C16A43208847414853
:1038E0004078401C3F49487071E0012C01D0022C07
:1038F0002FD1012C13D13D4909683D4A02EBC1107B
:103900008022E91CFCF764FC38480068401C3749F9
:1039100008603848006880303649086014E0334950
:103920000968334A02EB81204FF48062E91CFCF7FE
:103930004FFC2E480068401C2C4908602D48006848
:1039400000F580602B4908602648C16A0620884738
:103950000EE0042C09D12348C16A1520884721486C
:103960004078401C1F49487002E000201D49487003
:103970002DE0042C12D11B48C16A062088470A207A
:10398000FEF7B4F91748C16A432088470A20FEF7BA
:10399000ADF914484078401C1249487017E0012CDA
:1039A00015D11048C16A0620884700200D4948708B
:1039B000087048680F490A680D49FEF751FA0E4928
:1039C00008600846006810B10846006870BD00BF76
:1039D0000020A5F8B0044FF496612846FCF711FCCE
:1039E0000020F3E7C400002000000108F8000020D8
:1039F0000010002000010020FC00002010B5FEF7A0
:103A0000DDF92F4908700846007800284AD00128BF
:103A100004D0032821D004284ED133E0294800687F
:103A2000401C2849086008460068B0F5FA7F13DB9F
:103A30002548406800F07F40B0F1006F0CD122486B
:103A4000FEF7F0F940B921A0FDF74CFC00201D491C
:103A500008600120FEF724FB2FE01B48406800F0BF
:103A60007F40B0F1006F0CD11748FEF7DBF940B989
:103A700016A0FDF737FC0020124908600120FEF770
:103A80000FFB1AE017480068401C164908600846FA
:103A90000068642805DB002008601348C16A4320E1
:103AA00088470AE011A0FDF71DFC002005490860C9
:103AB0000320FEF7F5FA00E000BF00BF10BD0000D4
:103AC000F40000200401002000000108415050E5EE
:103AD0009BBAE4BBB6E4B88DE5AD98E59CA85C72F2
:103AE0000A00000008010020C40000202F2A2A2A12
:103AF0002A2AE69BB4E696B0E68890E58A9F2E2EA9
:103B00002E2A2A2A2A2A2A0D0A000000626F6F74C0
:103B1000000064656661756C74207573657200736E
:103B200065745661720073657420766172007570F9
:103B300000646F776E007269676874006C65667404
:103B400000746162006261636B737061636500623F
:103B500061636B73706163650064656C65746500B7
:103B6000656E74657200656E7465720068656C7070
:103B70000073686F7720636F6D6D616E6420696E8E
:103B8000666F0D0A68656C70205B636D645D00751F
:103B900073657273006C69737420616C6C2075734B
:103BA000657200636D6473006C69737420616C6C82
:103BB00020636D640076617273006C6973742061B8
:103BC0006C6C20766172006B657973006C6973743C
:103BD00020616C6C206B657900636C6561720063B9
:103BE0006C65617220636F6E736F6C65005349473B
:103BF0004E414C5F5449434B007465737400796DBA
:103C00006F64656D5F6F746100796D6F64656D5F82
:103C10006F7461007265626F6F74007265626F6FBE
:103C200074000000434D44200D0A00000D0A2020BE
:103C30003D3D3D3D3D20202020202020203D3D3D9C
:103C40003D202020202020203D3D3D3D20202020E3
:103C500020202020205F20200D0A207C7C20202096
:103C6000205C5C202020202F2F202020205C5C2046
:103C700020202F2F202020205C5C202020205F5F30
:103C80007C207C5F5F20202020200D0A207C7C206F
:103C90002020207C7C202020207C7C092020207C6F
:103CA0007C2020207C7C202020207C7C2020207CEC
:103CB0005F5F2020205F5F7C200D0A207C7C3D3DE3
:103CC0003D3D2F2F202020207C7C092020207C7C43
:103CD0002020207C7C202020207C7C202020202074
:103CE000207C207C20200D0A207C7C202020207C31
:103CF0007C202020207C7C092020207C7C2020200F
:103D00007C7C202020207C7C2020202020207C20E7
:103D10007C202020200D0A20203D3D3D3D3D2F2FC1
:103D2000202020205C5C3D3D3D3D2F2F2020205C4D
:103D30005C3D3D3D3D2F2F2020202020205C3D3D3F
:103D40003D7C202020202020200D0A0D0A4275698C
:103D50006C643A202020202020204F6374202038DB
:103D600020323032322031373A31373A30360D0A8C
:103D7000626F6F745F56657273696F6E3A202020B0
:103D80002020312E302E300D0A0000000D0A436F26
:103D90006D6D616E64204C6973743A0D0A00000009
:103DA0000D0A566172204C6973743A0D0A000000C6
:103DB0000D0A55736572204C6973743A0D0A000040
:103DC0000D0A4B6579204C6973743A0D0A000000A6
:103DD000436F6D6D616E64206E6F7420466F756EFB
:103DE000640D0A000D0A5761726E696E673A2043CE
:103DF0006F6D6D616E6420697320746F6F206C6FDE
:103E00006E670D0A00000000206973206E6F742039
:103E100061207661720D0A0063616E2774207365FC
:103E2000742072656164206F6E6C79207661720D0A
:103E30000A00000063616E27742073657420706F40
:103E4000696E7465720D0A000D0A70617373776F85
:103E50007264206572726F720D0A000056617220E2
:103E60006E6F7420466F756E740D0A001B5B324BCB
:103E70000D000000636F6D6D616E642068656C708D
:103E8000206F6620000000000D0A506C65617365AC
:103E900020696E7075742070617373776F72643A05
:103EA000000000004E4F4E45000000001B5B324AF0
:103EB0001B5B3148000000005641520055534552EB
:103EC000000000004B455900384000080000002069
:103ED0004C010000A0070008D84000084C01002059
:103EE000B4F6010014130008000800000C3B0008A1
:103EF000113B0008123B0008002100001F3B000896
:103F0000D5300008263B00080009000000415B1B7B
:103F1000773400082E3B00080009000000425B1BBC
:103F2000C1220008313B00080019000000435B1B60
:103F3000272F0008363B00080019000000445B1BD7
:103F4000EB2B00083C3B00080009000000000009C2
:103F5000D9320008413B00080019000000000008A9
:103F6000D5200008453B0008001900000000007F34
:103F7000D52000084F3B0008001900007E335B1B72
:103F8000B7210008593B0008001900000000000A92
:103F9000D1220008603B0008001900000000000D5D
:103FA000D1220008663B0008002000006C3B00089E
:103FB0009D280008713B0008002100008F3B00088D
:103FC00085340008953B000800210000A33B000851
:103FD000A5210008A83B000800210000B53B00080F
:103FE00097340008BA3B000800210000C73B0008D6
:103FF000D92B0008CC3B000800210000D93B000869
:1040000061210008DF3B000800220000ED3B0008B2
:1040100090000020F93B000800210000FE3B000852
:1040200089380008093C000800210000143C000801
:10403000592000081B3C000841132C3C1408E43DA7
:104040001B088C041AA0041AB0041AC0041AD00465
:1040500013343E1B0818041A08041A5C041A74046A
:104060001A88041A48041AAC041A6C041A24401A58
:10407000B8081ABC041AC4041AA404412D0102038E
:104080000404450607080954E703534F1D010301C3
:104090000F270C5432010342204D026102E80F1138
:1040A000421083C2011FC0090A0725031C39122CC4
:1040B00006420220121C3B600268513A0174012042
:1040C0004B31389C011C13011F6A08881A7D0C5A59
:0840D000F4871A110C021B64B5
:040000050800018965
:00000001FF
